{
  "_format": "hh-sol-artifact-1",
  "contractName": "ChainlinkFeedPriceOracleFactory",
  "sourceName": "contracts/oracleprice/chainlink/ChainlinkFeedPriceOracleFactory.sol",
  "abi": [
    {
      "anonymous": false,
      "inputs": [
        {
          "indexed": false,
          "internalType": "address",
          "name": "sender",
          "type": "address"
        },
        {
          "indexed": false,
          "internalType": "address",
          "name": "implementation",
          "type": "address"
        }
      ],
      "name": "Implementation",
      "type": "event"
    },
    {
      "anonymous": false,
      "inputs": [
        {
          "indexed": false,
          "internalType": "address",
          "name": "sender",
          "type": "address"
        },
        {
          "indexed": false,
          "internalType": "address",
          "name": "child",
          "type": "address"
        }
      ],
      "name": "NewChild",
      "type": "event"
    },
    {
      "inputs": [
        {
          "internalType": "bytes",
          "name": "data_",
          "type": "bytes"
        }
      ],
      "name": "createChild",
      "outputs": [
        {
          "internalType": "address",
          "name": "",
          "type": "address"
        }
      ],
      "stateMutability": "nonpayable",
      "type": "function"
    },
    {
      "inputs": [
        {
          "internalType": "address",
          "name": "config_",
          "type": "address"
        }
      ],
      "name": "createChildTyped",
      "outputs": [
        {
          "internalType": "contract ChainlinkFeedPriceOracle",
          "name": "",
          "type": "address"
        }
      ],
      "stateMutability": "nonpayable",
      "type": "function"
    },
    {
      "inputs": [
        {
          "internalType": "address",
          "name": "maybeChild_",
          "type": "address"
        }
      ],
      "name": "isChild",
      "outputs": [
        {
          "internalType": "bool",
          "name": "",
          "type": "bool"
        }
      ],
      "stateMutability": "view",
      "type": "function"
    }
  ],
  "bytecode": "0x608060405234801561001057600080fd5b506001600055610aea806100256000396000f3fe608060405234801561001057600080fd5b50600436106100415760003560e01c80632ea72a4914610046578063b536745114610083578063fc91a89714610096575b600080fd5b610059610054366004610395565b6100df565b60405173ffffffffffffffffffffffffffffffffffffffff90911681526020015b60405180910390f35b61005961009136600461042c565b61028d565b6100cf6100a436600461042c565b73ffffffffffffffffffffffffffffffffffffffff1660009081526001602052604090205460ff1690565b604051901515815260200161007a565b600060026000541415610153576040517f08c379a000000000000000000000000000000000000000000000000000000000815260206004820152601f60248201527f5265656e7472616e637947756172643a207265656e7472616e742063616c6c0060448201526064015b60405180910390fd5b60026000908155610164848461032d565b73ffffffffffffffffffffffffffffffffffffffff811660009081526001602052604090205490915060ff16156101f7576040517f08c379a000000000000000000000000000000000000000000000000000000000815260206004820152600f60248201527f4455504c49434154455f4348494c440000000000000000000000000000000000604482015260640161014a565b73ffffffffffffffffffffffffffffffffffffffff811660008181526001602081815260409283902080547fffffffffffffffffffffffffffffffffffffffffffffffffffffffffffffff00169092179091558151338152908101929092527f7da70c4e5387d7038610b79ca7d304caaef815826e51e67cf247135387a79bce910160405180910390a160016000559392505050565b6040805173ffffffffffffffffffffffffffffffffffffffff831660208201526000913091632ea72a4991016040516020818303038152906040526040518263ffffffff1660e01b81526004016102e49190610450565b6020604051808303816000875af1158015610303573d6000803e3d6000fd5b505050506040513d601f19601f8201168201806040525081019061032791906104c3565b92915050565b600061033b8284018461042c565b60405161034790610388565b73ffffffffffffffffffffffffffffffffffffffff9091168152602001604051809103906000f080158015610380573d6000803e3d6000fd5b509392505050565b6105d4806104e183390190565b600080602083850312156103a857600080fd5b823567ffffffffffffffff808211156103c057600080fd5b818501915085601f8301126103d457600080fd5b8135818111156103e357600080fd5b8660208285010111156103f557600080fd5b60209290920196919550909350505050565b73ffffffffffffffffffffffffffffffffffffffff8116811461042957600080fd5b50565b60006020828403121561043e57600080fd5b813561044981610407565b9392505050565b600060208083528351808285015260005b8181101561047d57858101830151858201604001528201610461565b8181111561048f576000604083870101525b50601f017fffffffffffffffffffffffffffffffffffffffffffffffffffffffffffffffe016929092016040019392505050565b6000602082840312156104d557600080fd5b81516104498161040756fe60a060405234801561001057600080fd5b506040516105d43803806105d483398101604081905261002f9161007e565b6001600160a01b03811660808190526040805133815260208101929092527f5f63946e11739f4be61acff98b3149afb32b3108eb7855b8d7afdebd36c4769d910160405180910390a1506100ae565b60006020828403121561009057600080fd5b81516001600160a01b03811681146100a757600080fd5b9392505050565b6080516105056100cf60003960008181604f015261015a01526105056000f3fe608060405234801561001057600080fd5b506004361061002b5760003560e01c8063a035b1fe14610030575b600080fd5b61003861004a565b60405190815260200160405180910390f35b6000807f000000000000000000000000000000000000000000000000000000000000000073ffffffffffffffffffffffffffffffffffffffff1663feaf968c6040518163ffffffff1660e01b815260040160a060405180830381865afa1580156100b8573d6000803e3d6000fd5b505050506040513d601f19601f820116820180604052508101906100dc9190610269565b50505091505060008113610150576040517f08c379a000000000000000000000000000000000000000000000000000000000815260206004820152600e60248201527f4d494e5f424153455f5052494345000000000000000000000000000000000000604482015260640160405180910390fd5b60006012905060007f000000000000000000000000000000000000000000000000000000000000000073ffffffffffffffffffffffffffffffffffffffff1663313ce5676040518163ffffffff1660e01b8152600401602060405180830381865afa1580156101c3573d6000803e3d6000fd5b505050506040513d601f19601f820116820180604052508101906101e791906102b9565b60ff1690508082111561021b576101fe8183610312565b61020990600a61044b565b6102139084610457565b935050505090565b818111156102425761022d8282610312565b61023890600a61044b565b6102139084610494565b509092915050565b805169ffffffffffffffffffff8116811461026457600080fd5b919050565b600080600080600060a0868803121561028157600080fd5b61028a8661024a565b94506020860151935060408601519250606086015191506102ad6080870161024a565b90509295509295909350565b6000602082840312156102cb57600080fd5b815160ff811681146102dc57600080fd5b9392505050565b7f4e487b7100000000000000000000000000000000000000000000000000000000600052601160045260246000fd5b600082821015610324576103246102e3565b500390565b600181815b8085111561038257817fffffffffffffffffffffffffffffffffffffffffffffffffffffffffffffffff04821115610368576103686102e3565b8085161561037557918102915b93841c939080029061032e565b509250929050565b60008261039957506001610445565b816103a657506000610445565b81600181146103bc57600281146103c6576103e2565b6001915050610445565b60ff8411156103d7576103d76102e3565b50506001821b610445565b5060208310610133831016604e8410600b8410161715610405575081810a610445565b61040f8383610329565b807fffffffffffffffffffffffffffffffffffffffffffffffffffffffffffffffff04821115610441576104416102e3565b0290505b92915050565b60006102dc838361038a565b6000817fffffffffffffffffffffffffffffffffffffffffffffffffffffffffffffffff048311821515161561048f5761048f6102e3565b500290565b6000826104ca577f4e487b7100000000000000000000000000000000000000000000000000000000600052601260045260246000fd5b50049056fea2646970667358221220871e174fd724e0205c0f1078fded1fdcb81b891fa629409616507b6ab4cda1bc64736f6c634300080a0033a26469706673582212202f13df9c98e3e24bed571f3a80a442f76c279baa806afce5cd902330784ddb5a64736f6c634300080a0033",
  "linkReferences": {},
  "deployedLinkReferences": {}
}