{
  "_format": "hh-sol-artifact-1",
  "contractName": "NativeGild",
  "sourceName": "contracts/NativeGild.sol",
  "abi": [
    {
      "inputs": [
        {
          "components": [
            {
              "internalType": "string",
              "name": "name",
              "type": "string"
            },
            {
              "internalType": "string",
              "name": "symbol",
              "type": "string"
            },
            {
              "internalType": "string",
              "name": "uri",
              "type": "string"
            },
            {
              "internalType": "uint256",
              "name": "erc20OverburnNumerator",
              "type": "uint256"
            },
            {
              "internalType": "uint256",
              "name": "erc20OverburnDenominator",
              "type": "uint256"
            },
            {
              "internalType": "contract IPriceOracle",
              "name": "priceOracle",
              "type": "address"
            }
          ],
          "internalType": "struct GildConfig",
          "name": "config_",
          "type": "tuple"
        }
      ],
      "stateMutability": "nonpayable",
      "type": "constructor"
    },
    {
      "anonymous": false,
      "inputs": [
        {
          "indexed": true,
          "internalType": "address",
          "name": "owner",
          "type": "address"
        },
        {
          "indexed": true,
          "internalType": "address",
          "name": "spender",
          "type": "address"
        },
        {
          "indexed": false,
          "internalType": "uint256",
          "name": "value",
          "type": "uint256"
        }
      ],
      "name": "Approval",
      "type": "event"
    },
    {
      "anonymous": false,
      "inputs": [
        {
          "indexed": true,
          "internalType": "address",
          "name": "account",
          "type": "address"
        },
        {
          "indexed": true,
          "internalType": "address",
          "name": "operator",
          "type": "address"
        },
        {
          "indexed": false,
          "internalType": "bool",
          "name": "approved",
          "type": "bool"
        }
      ],
      "name": "ApprovalForAll",
      "type": "event"
    },
    {
      "anonymous": false,
      "inputs": [
        {
          "indexed": false,
          "internalType": "address",
          "name": "sender",
          "type": "address"
        },
        {
          "components": [
            {
              "internalType": "string",
              "name": "name",
              "type": "string"
            },
            {
              "internalType": "string",
              "name": "symbol",
              "type": "string"
            },
            {
              "internalType": "string",
              "name": "uri",
              "type": "string"
            },
            {
              "internalType": "uint256",
              "name": "erc20OverburnNumerator",
              "type": "uint256"
            },
            {
              "internalType": "uint256",
              "name": "erc20OverburnDenominator",
              "type": "uint256"
            },
            {
              "internalType": "contract IPriceOracle",
              "name": "priceOracle",
              "type": "address"
            }
          ],
          "indexed": false,
          "internalType": "struct GildConfig",
          "name": "config",
          "type": "tuple"
        }
      ],
      "name": "Construction",
      "type": "event"
    },
    {
      "anonymous": false,
      "inputs": [
        {
          "indexed": false,
          "internalType": "address",
          "name": "sender",
          "type": "address"
        },
        {
          "indexed": false,
          "internalType": "uint256",
          "name": "price",
          "type": "uint256"
        },
        {
          "indexed": false,
          "internalType": "uint256",
          "name": "amount",
          "type": "uint256"
        }
      ],
      "name": "Gild",
      "type": "event"
    },
    {
      "anonymous": false,
      "inputs": [
        {
          "indexed": true,
          "internalType": "address",
          "name": "from",
          "type": "address"
        },
        {
          "indexed": true,
          "internalType": "address",
          "name": "to",
          "type": "address"
        },
        {
          "indexed": false,
          "internalType": "uint256",
          "name": "value",
          "type": "uint256"
        }
      ],
      "name": "Transfer",
      "type": "event"
    },
    {
      "anonymous": false,
      "inputs": [
        {
          "indexed": true,
          "internalType": "address",
          "name": "operator",
          "type": "address"
        },
        {
          "indexed": true,
          "internalType": "address",
          "name": "from",
          "type": "address"
        },
        {
          "indexed": true,
          "internalType": "address",
          "name": "to",
          "type": "address"
        },
        {
          "indexed": false,
          "internalType": "uint256[]",
          "name": "ids",
          "type": "uint256[]"
        },
        {
          "indexed": false,
          "internalType": "uint256[]",
          "name": "values",
          "type": "uint256[]"
        }
      ],
      "name": "TransferBatch",
      "type": "event"
    },
    {
      "anonymous": false,
      "inputs": [
        {
          "indexed": true,
          "internalType": "address",
          "name": "operator",
          "type": "address"
        },
        {
          "indexed": true,
          "internalType": "address",
          "name": "from",
          "type": "address"
        },
        {
          "indexed": true,
          "internalType": "address",
          "name": "to",
          "type": "address"
        },
        {
          "indexed": false,
          "internalType": "uint256",
          "name": "id",
          "type": "uint256"
        },
        {
          "indexed": false,
          "internalType": "uint256",
          "name": "value",
          "type": "uint256"
        }
      ],
      "name": "TransferSingle",
      "type": "event"
    },
    {
      "anonymous": false,
      "inputs": [
        {
          "indexed": false,
          "internalType": "string",
          "name": "value",
          "type": "string"
        },
        {
          "indexed": true,
          "internalType": "uint256",
          "name": "id",
          "type": "uint256"
        }
      ],
      "name": "URI",
      "type": "event"
    },
    {
      "anonymous": false,
      "inputs": [
        {
          "indexed": false,
          "internalType": "address",
          "name": "sender",
          "type": "address"
        },
        {
          "indexed": false,
          "internalType": "uint256",
          "name": "price",
          "type": "uint256"
        },
        {
          "indexed": false,
          "internalType": "uint256",
          "name": "amount",
          "type": "uint256"
        }
      ],
      "name": "Ungild",
      "type": "event"
    },
    {
      "inputs": [
        {
          "internalType": "address",
          "name": "owner",
          "type": "address"
        },
        {
          "internalType": "address",
          "name": "spender",
          "type": "address"
        }
      ],
      "name": "allowance",
      "outputs": [
        {
          "internalType": "uint256",
          "name": "",
          "type": "uint256"
        }
      ],
      "stateMutability": "view",
      "type": "function"
    },
    {
      "inputs": [
        {
          "internalType": "address",
          "name": "spender",
          "type": "address"
        },
        {
          "internalType": "uint256",
          "name": "amount",
          "type": "uint256"
        }
      ],
      "name": "approve",
      "outputs": [
        {
          "internalType": "bool",
          "name": "",
          "type": "bool"
        }
      ],
      "stateMutability": "nonpayable",
      "type": "function"
    },
    {
      "inputs": [
        {
          "internalType": "address",
          "name": "account",
          "type": "address"
        },
        {
          "internalType": "uint256",
          "name": "id",
          "type": "uint256"
        }
      ],
      "name": "balanceOf",
      "outputs": [
        {
          "internalType": "uint256",
          "name": "",
          "type": "uint256"
        }
      ],
      "stateMutability": "view",
      "type": "function"
    },
    {
      "inputs": [
        {
          "internalType": "address",
          "name": "account",
          "type": "address"
        }
      ],
      "name": "balanceOf",
      "outputs": [
        {
          "internalType": "uint256",
          "name": "",
          "type": "uint256"
        }
      ],
      "stateMutability": "view",
      "type": "function"
    },
    {
      "inputs": [
        {
          "internalType": "address[]",
          "name": "accounts",
          "type": "address[]"
        },
        {
          "internalType": "uint256[]",
          "name": "ids",
          "type": "uint256[]"
        }
      ],
      "name": "balanceOfBatch",
      "outputs": [
        {
          "internalType": "uint256[]",
          "name": "",
          "type": "uint256[]"
        }
      ],
      "stateMutability": "view",
      "type": "function"
    },
    {
      "inputs": [],
      "name": "decimals",
      "outputs": [
        {
          "internalType": "uint8",
          "name": "",
          "type": "uint8"
        }
      ],
      "stateMutability": "view",
      "type": "function"
    },
    {
      "inputs": [
        {
          "internalType": "address",
          "name": "spender",
          "type": "address"
        },
        {
          "internalType": "uint256",
          "name": "subtractedValue",
          "type": "uint256"
        }
      ],
      "name": "decreaseAllowance",
      "outputs": [
        {
          "internalType": "bool",
          "name": "",
          "type": "bool"
        }
      ],
      "stateMutability": "nonpayable",
      "type": "function"
    },
    {
      "inputs": [],
      "name": "erc20OverburnDenominator",
      "outputs": [
        {
          "internalType": "uint256",
          "name": "",
          "type": "uint256"
        }
      ],
      "stateMutability": "view",
      "type": "function"
    },
    {
      "inputs": [],
      "name": "erc20OverburnNumerator",
      "outputs": [
        {
          "internalType": "uint256",
          "name": "",
          "type": "uint256"
        }
      ],
      "stateMutability": "view",
      "type": "function"
    },
    {
      "inputs": [
        {
          "internalType": "uint256",
          "name": "minPrice_",
          "type": "uint256"
        }
      ],
      "name": "gild",
      "outputs": [
        {
          "internalType": "uint256",
          "name": "",
          "type": "uint256"
        }
      ],
      "stateMutability": "payable",
      "type": "function"
    },
    {
      "inputs": [
        {
          "internalType": "address",
          "name": "spender",
          "type": "address"
        },
        {
          "internalType": "uint256",
          "name": "addedValue",
          "type": "uint256"
        }
      ],
      "name": "increaseAllowance",
      "outputs": [
        {
          "internalType": "bool",
          "name": "",
          "type": "bool"
        }
      ],
      "stateMutability": "nonpayable",
      "type": "function"
    },
    {
      "inputs": [
        {
          "internalType": "address",
          "name": "account",
          "type": "address"
        },
        {
          "internalType": "address",
          "name": "operator",
          "type": "address"
        }
      ],
      "name": "isApprovedForAll",
      "outputs": [
        {
          "internalType": "bool",
          "name": "",
          "type": "bool"
        }
      ],
      "stateMutability": "view",
      "type": "function"
    },
    {
      "inputs": [],
      "name": "name",
      "outputs": [
        {
          "internalType": "string",
          "name": "",
          "type": "string"
        }
      ],
      "stateMutability": "view",
      "type": "function"
    },
    {
      "inputs": [],
      "name": "priceOracle",
      "outputs": [
        {
          "internalType": "contract IPriceOracle",
          "name": "",
          "type": "address"
        }
      ],
      "stateMutability": "view",
      "type": "function"
    },
    {
      "inputs": [
        {
          "internalType": "address",
          "name": "from",
          "type": "address"
        },
        {
          "internalType": "address",
          "name": "to",
          "type": "address"
        },
        {
          "internalType": "uint256[]",
          "name": "ids",
          "type": "uint256[]"
        },
        {
          "internalType": "uint256[]",
          "name": "amounts",
          "type": "uint256[]"
        },
        {
          "internalType": "bytes",
          "name": "data",
          "type": "bytes"
        }
      ],
      "name": "safeBatchTransferFrom",
      "outputs": [],
      "stateMutability": "nonpayable",
      "type": "function"
    },
    {
      "inputs": [
        {
          "internalType": "address",
          "name": "from",
          "type": "address"
        },
        {
          "internalType": "address",
          "name": "to",
          "type": "address"
        },
        {
          "internalType": "uint256",
          "name": "id",
          "type": "uint256"
        },
        {
          "internalType": "uint256",
          "name": "amount",
          "type": "uint256"
        },
        {
          "internalType": "bytes",
          "name": "data",
          "type": "bytes"
        }
      ],
      "name": "safeTransferFrom",
      "outputs": [],
      "stateMutability": "nonpayable",
      "type": "function"
    },
    {
      "inputs": [
        {
          "internalType": "address",
          "name": "operator",
          "type": "address"
        },
        {
          "internalType": "bool",
          "name": "approved",
          "type": "bool"
        }
      ],
      "name": "setApprovalForAll",
      "outputs": [],
      "stateMutability": "nonpayable",
      "type": "function"
    },
    {
      "inputs": [
        {
          "internalType": "bytes4",
          "name": "interfaceId",
          "type": "bytes4"
        }
      ],
      "name": "supportsInterface",
      "outputs": [
        {
          "internalType": "bool",
          "name": "",
          "type": "bool"
        }
      ],
      "stateMutability": "view",
      "type": "function"
    },
    {
      "inputs": [],
      "name": "symbol",
      "outputs": [
        {
          "internalType": "string",
          "name": "",
          "type": "string"
        }
      ],
      "stateMutability": "view",
      "type": "function"
    },
    {
      "inputs": [],
      "name": "totalSupply",
      "outputs": [
        {
          "internalType": "uint256",
          "name": "",
          "type": "uint256"
        }
      ],
      "stateMutability": "view",
      "type": "function"
    },
    {
      "inputs": [
        {
          "internalType": "address",
          "name": "to",
          "type": "address"
        },
        {
          "internalType": "uint256",
          "name": "amount",
          "type": "uint256"
        }
      ],
      "name": "transfer",
      "outputs": [
        {
          "internalType": "bool",
          "name": "",
          "type": "bool"
        }
      ],
      "stateMutability": "nonpayable",
      "type": "function"
    },
    {
      "inputs": [
        {
          "internalType": "address",
          "name": "from",
          "type": "address"
        },
        {
          "internalType": "address",
          "name": "to",
          "type": "address"
        },
        {
          "internalType": "uint256",
          "name": "amount",
          "type": "uint256"
        }
      ],
      "name": "transferFrom",
      "outputs": [
        {
          "internalType": "bool",
          "name": "",
          "type": "bool"
        }
      ],
      "stateMutability": "nonpayable",
      "type": "function"
    },
    {
      "inputs": [
        {
          "internalType": "uint256",
          "name": "price_",
          "type": "uint256"
        },
        {
          "internalType": "uint256",
          "name": "erc1155Amount_",
          "type": "uint256"
        }
      ],
      "name": "ungild",
      "outputs": [],
      "stateMutability": "nonpayable",
      "type": "function"
    },
    {
      "inputs": [
        {
          "internalType": "uint256",
          "name": "",
          "type": "uint256"
        }
      ],
      "name": "uri",
      "outputs": [
        {
          "internalType": "string",
          "name": "",
          "type": "string"
        }
      ],
      "stateMutability": "view",
      "type": "function"
    }
  ],
  "bytecode": "0x60e06040523480156200001157600080fd5b506040516200388c3803806200388c8339810160408190526200003491620002ce565b60408101518151602080840151825185949392620000589160039185019062000106565b5080516200006e90600490602084019062000106565b5050506200008281620000ed60201b60201c565b5060016008556060810151608090815281015160a09081528101516001600160a01b031660c0526040517f3cda38b0de5db69f9987165ce6ed0c1abec304cf541f707c5c4ce3adf73a052790620000dd9033908490620003e5565b60405180910390a15050620004bf565b80516200010290600790602084019062000106565b5050565b828054620001149062000482565b90600052602060002090601f01602090048101928262000138576000855562000183565b82601f106200015357805160ff191683800117855562000183565b8280016001018555821562000183579182015b828111156200018357825182559160200191906001019062000166565b506200019192915062000195565b5090565b5b8082111562000191576000815560010162000196565b634e487b7160e01b600052604160045260246000fd5b60405160c081016001600160401b0381118282101715620001e757620001e7620001ac565b60405290565b60005b838110156200020a578181015183820152602001620001f0565b838111156200021a576000848401525b50505050565b600082601f8301126200023257600080fd5b81516001600160401b03808211156200024f576200024f620001ac565b604051601f8301601f19908116603f011681019082821181831017156200027a576200027a620001ac565b816040528381528660208588010111156200029457600080fd5b620002a7846020830160208901620001ed565b9695505050505050565b80516001600160a01b0381168114620002c957600080fd5b919050565b600060208284031215620002e157600080fd5b81516001600160401b0380821115620002f957600080fd5b9083019060c082860312156200030e57600080fd5b62000318620001c2565b8251828111156200032857600080fd5b620003368782860162000220565b8252506020830151828111156200034c57600080fd5b6200035a8782860162000220565b6020830152506040830151828111156200037357600080fd5b620003818782860162000220565b6040830152506060830151606082015260808301516080820152620003a960a08401620002b1565b60a082015295945050505050565b60008151808452620003d1816020860160208601620001ed565b601f01601f19169290920160200192915050565b600060018060a01b03808516835260406020840152835160c0604085015262000413610100850182620003b7565b90506020850151603f1980868403016060870152620004338383620003b7565b9250604087015191508086840301608087015250620004538282620003b7565b915050606085015160a0850152608085015160c08501528160a08601511660e085015280925050509392505050565b600181811c908216806200049757607f821691505b60208210811415620004b957634e487b7160e01b600052602260045260246000fd5b50919050565b60805160a05160c05161337a62000512600039600081816102cf01526115fa01526000818161024601528181611716015281816119d30152611a610152600081816103f60152611a85015261337a6000f3fe60806040526004361061018a5760003560e01c80634e1273f4116100d6578063a457c2d71161007f578063dd62ed3e11610059578063dd62ed3e146104c0578063e985e9c514610513578063f242432a1461056957600080fd5b8063a457c2d714610460578063a9059cbb14610480578063d2e30268146104a057600080fd5b80638ae695b6116100b05780638ae695b61461041857806395d89b411461042b578063a22cb4651461044057600080fd5b80634e1273f41461037457806370a08231146103a15780637ab0033e146103e457600080fd5b806318160ddd116101385780632eb2c2d6116101125780632eb2c2d614610316578063313ce56714610338578063395093511461035457600080fd5b806318160ddd1461028857806323b872dd1461029d5780632630c12f146102bd57600080fd5b8063095ea7b311610169578063095ea7b3146102145780630e837b9a146102345780630e89341c1461026857600080fd5b8062fdd58e1461018f57806301ffc9a7146101c257806306fdde03146101f2575b600080fd5b34801561019b57600080fd5b506101af6101aa366004612a08565b610589565b6040519081526020015b60405180910390f35b3480156101ce57600080fd5b506101e26101dd366004612a63565b610668565b60405190151581526020016101b9565b3480156101fe57600080fd5b5061020761074d565b6040516101b99190612af2565b34801561022057600080fd5b506101e261022f366004612a08565b6107df565b34801561024057600080fd5b506101af7f000000000000000000000000000000000000000000000000000000000000000081565b34801561027457600080fd5b50610207610283366004612b05565b6107f7565b34801561029457600080fd5b506002546101af565b3480156102a957600080fd5b506101e26102b8366004612b1e565b61088b565b3480156102c957600080fd5b506102f17f000000000000000000000000000000000000000000000000000000000000000081565b60405173ffffffffffffffffffffffffffffffffffffffff90911681526020016101b9565b34801561032257600080fd5b50610336610331366004612cfb565b6108af565b005b34801561034457600080fd5b50604051601281526020016101b9565b34801561036057600080fd5b506101e261036f366004612a08565b610978565b34801561038057600080fd5b5061039461038f366004612da5565b6109c4565b6040516101b99190612eab565b3480156103ad57600080fd5b506101af6103bc366004612ebe565b73ffffffffffffffffffffffffffffffffffffffff1660009081526020819052604090205490565b3480156103f057600080fd5b506101af7f000000000000000000000000000000000000000000000000000000000000000081565b6101af610426366004612b05565b610b1c565b34801561043757600080fd5b50610207610b28565b34801561044c57600080fd5b5061033661045b366004612ed9565b610b37565b34801561046c57600080fd5b506101e261047b366004612a08565b610b46565b34801561048c57600080fd5b506101e261049b366004612a08565b610c17565b3480156104ac57600080fd5b506103366104bb366004612f15565b610c25565b3480156104cc57600080fd5b506101af6104db366004612f37565b73ffffffffffffffffffffffffffffffffffffffff918216600090815260016020908152604080832093909416825291909152205490565b34801561051f57600080fd5b506101e261052e366004612f37565b73ffffffffffffffffffffffffffffffffffffffff918216600090815260066020908152604080832093909416825291909152205460ff1690565b34801561057557600080fd5b50610336610584366004612f6a565b610c42565b600073ffffffffffffffffffffffffffffffffffffffff8316610633576040517f08c379a000000000000000000000000000000000000000000000000000000000815260206004820152602b60248201527f455243313135353a2062616c616e636520717565727920666f7220746865207a60448201527f65726f206164647265737300000000000000000000000000000000000000000060648201526084015b60405180910390fd5b50600090815260056020908152604080832073ffffffffffffffffffffffffffffffffffffffff949094168352929052205490565b60007fffffffff0000000000000000000000000000000000000000000000000000000082167fd9b67a260000000000000000000000000000000000000000000000000000000014806106fb57507fffffffff0000000000000000000000000000000000000000000000000000000082167f0e89341c00000000000000000000000000000000000000000000000000000000145b8061074757507f01ffc9a7000000000000000000000000000000000000000000000000000000007fffffffff000000000000000000000000000000000000000000000000000000008316145b92915050565b60606003805461075c90612fcf565b80601f016020809104026020016040519081016040528092919081815260200182805461078890612fcf565b80156107d55780601f106107aa576101008083540402835291602001916107d5565b820191906000526020600020905b8154815290600101906020018083116107b857829003601f168201915b5050505050905090565b6000336107ed818585610d04565b5060019392505050565b60606007805461080690612fcf565b80601f016020809104026020016040519081016040528092919081815260200182805461083290612fcf565b801561087f5780601f106108545761010080835404028352916020019161087f565b820191906000526020600020905b81548152906001019060200180831161086257829003601f168201915b50505050509050919050565b600033610899858285610eb8565b6108a4858585610f8f565b506001949350505050565b73ffffffffffffffffffffffffffffffffffffffff85163314806108d857506108d8853361052e565b610964576040517f08c379a000000000000000000000000000000000000000000000000000000000815260206004820152603260248201527f455243313135353a207472616e736665722063616c6c6572206973206e6f742060448201527f6f776e6572206e6f7220617070726f7665640000000000000000000000000000606482015260840161062a565b6109718585858585611242565b5050505050565b33600081815260016020908152604080832073ffffffffffffffffffffffffffffffffffffffff871684529091528120549091906107ed90829086906109bf908790613052565b610d04565b60608151835114610a57576040517f08c379a000000000000000000000000000000000000000000000000000000000815260206004820152602960248201527f455243313135353a206163636f756e747320616e6420696473206c656e67746860448201527f206d69736d617463680000000000000000000000000000000000000000000000606482015260840161062a565b6000835167ffffffffffffffff811115610a7357610a73612b5a565b604051908082528060200260200182016040528015610a9c578160200160208202803683370190505b50905060005b8451811015610b1457610ae7858281518110610ac057610ac061306a565b6020026020010151858381518110610ada57610ada61306a565b6020026020010151610589565b828281518110610af957610af961306a565b6020908102919091010152610b0d81613099565b9050610aa2565b509392505050565b6000610747348361157f565b60606004805461075c90612fcf565b610b42338383611811565b5050565b33600081815260016020908152604080832073ffffffffffffffffffffffffffffffffffffffff8716845290915281205490919083811015610c0a576040517f08c379a000000000000000000000000000000000000000000000000000000000815260206004820152602560248201527f45524332303a2064656372656173656420616c6c6f77616e63652062656c6f7760448201527f207a65726f000000000000000000000000000000000000000000000000000000606482015260840161062a565b6108a48286868403610d04565b6000336107ed818585610f8f565b6000610c31838361195d565b9050610c3d3382611b33565b505050565b73ffffffffffffffffffffffffffffffffffffffff8516331480610c6b5750610c6b853361052e565b610cf7576040517f08c379a000000000000000000000000000000000000000000000000000000000815260206004820152602960248201527f455243313135353a2063616c6c6572206973206e6f74206f776e6572206e6f7260448201527f20617070726f7665640000000000000000000000000000000000000000000000606482015260840161062a565b6109718585858585611c8d565b73ffffffffffffffffffffffffffffffffffffffff8316610da6576040517f08c379a0000000000000000000000000000000000000000000000000000000008152602060048201526024808201527f45524332303a20617070726f76652066726f6d20746865207a65726f2061646460448201527f7265737300000000000000000000000000000000000000000000000000000000606482015260840161062a565b73ffffffffffffffffffffffffffffffffffffffff8216610e49576040517f08c379a000000000000000000000000000000000000000000000000000000000815260206004820152602260248201527f45524332303a20617070726f766520746f20746865207a65726f20616464726560448201527f7373000000000000000000000000000000000000000000000000000000000000606482015260840161062a565b73ffffffffffffffffffffffffffffffffffffffff83811660008181526001602090815260408083209487168084529482529182902085905590518481527f8c5be1e5ebec7d5bd14f71427d1e84f3dd0314c0f7b2291e5b200ac8c7c3b92591015b60405180910390a3505050565b73ffffffffffffffffffffffffffffffffffffffff8381166000908152600160209081526040808320938616835292905220547fffffffffffffffffffffffffffffffffffffffffffffffffffffffffffffffff8114610f895781811015610f7c576040517f08c379a000000000000000000000000000000000000000000000000000000000815260206004820152601d60248201527f45524332303a20696e73756666696369656e7420616c6c6f77616e6365000000604482015260640161062a565b610f898484848403610d04565b50505050565b73ffffffffffffffffffffffffffffffffffffffff8316611032576040517f08c379a000000000000000000000000000000000000000000000000000000000815260206004820152602560248201527f45524332303a207472616e736665722066726f6d20746865207a65726f20616460448201527f6472657373000000000000000000000000000000000000000000000000000000606482015260840161062a565b73ffffffffffffffffffffffffffffffffffffffff82166110d5576040517f08c379a000000000000000000000000000000000000000000000000000000000815260206004820152602360248201527f45524332303a207472616e7366657220746f20746865207a65726f206164647260448201527f6573730000000000000000000000000000000000000000000000000000000000606482015260840161062a565b73ffffffffffffffffffffffffffffffffffffffff83166000908152602081905260409020548181101561118b576040517f08c379a000000000000000000000000000000000000000000000000000000000815260206004820152602660248201527f45524332303a207472616e7366657220616d6f756e742065786365656473206260448201527f616c616e63650000000000000000000000000000000000000000000000000000606482015260840161062a565b73ffffffffffffffffffffffffffffffffffffffff8085166000908152602081905260408082208585039055918516815290812080548492906111cf908490613052565b925050819055508273ffffffffffffffffffffffffffffffffffffffff168473ffffffffffffffffffffffffffffffffffffffff167fddf252ad1be2c89b69c2b068fc378daa952ba7f163c4a11628f55a4df523b3ef8460405161123591815260200190565b60405180910390a3610f89565b81518351146112d3576040517f08c379a000000000000000000000000000000000000000000000000000000000815260206004820152602860248201527f455243313135353a2069647320616e6420616d6f756e7473206c656e6774682060448201527f6d69736d61746368000000000000000000000000000000000000000000000000606482015260840161062a565b73ffffffffffffffffffffffffffffffffffffffff8416611376576040517f08c379a000000000000000000000000000000000000000000000000000000000815260206004820152602560248201527f455243313135353a207472616e7366657220746f20746865207a65726f20616460448201527f6472657373000000000000000000000000000000000000000000000000000000606482015260840161062a565b3360005b84518110156114ea5760008582815181106113975761139761306a565b6020026020010151905060008583815181106113b5576113b561306a565b602090810291909101810151600084815260058352604080822073ffffffffffffffffffffffffffffffffffffffff8e168352909352919091205490915081811015611483576040517f08c379a000000000000000000000000000000000000000000000000000000000815260206004820152602a60248201527f455243313135353a20696e73756666696369656e742062616c616e636520666f60448201527f72207472616e7366657200000000000000000000000000000000000000000000606482015260840161062a565b600083815260056020908152604080832073ffffffffffffffffffffffffffffffffffffffff8e8116855292528083208585039055908b168252812080548492906114cf908490613052565b92505081905550505050806114e390613099565b905061137a565b508473ffffffffffffffffffffffffffffffffffffffff168673ffffffffffffffffffffffffffffffffffffffff168273ffffffffffffffffffffffffffffffffffffffff167f4a39dc06d4c0dbc64b70af90fd698a233a518aa5d07e595d983b8c0526c8f7fb87876040516115619291906130d2565b60405180910390a4611577818787878787611ecf565b505050505050565b6000600260085414156115ee576040517f08c379a000000000000000000000000000000000000000000000000000000000815260206004820152601f60248201527f5265656e7472616e637947756172643a207265656e7472616e742063616c6c00604482015260640161062a565b600260088190555060007f000000000000000000000000000000000000000000000000000000000000000073ffffffffffffffffffffffffffffffffffffffff1663a035b1fe6040518163ffffffff1660e01b8152600401602060405180830381865afa158015611663573d6000803e3d6000fd5b505050506040513d601f19601f820116820180604052508101906116879190613100565b9050828110156116f3576040517f08c379a000000000000000000000000000000000000000000000000000000000815260206004820152600960248201527f4d494e5f50524943450000000000000000000000000000000000000000000000604482015260640161062a565b6000670de0b6b3a76400006117088387613119565b6117129190613156565b90507f000000000000000000000000000000000000000000000000000000000000000081101561179e576040517f08c379a000000000000000000000000000000000000000000000000000000000815260206004820152600860248201527f4d494e5f47494c44000000000000000000000000000000000000000000000000604482015260640161062a565b60408051338152602081018490529081018690527fc66f733e9d5c173fcba5d2cce3a531567ec6e64ab634b7cde4485fa1f57afd259060600160405180910390a16117e93382612163565b61180433838360405180602001604052806000815250612283565b5060016008559392505050565b8173ffffffffffffffffffffffffffffffffffffffff168373ffffffffffffffffffffffffffffffffffffffff1614156118cd576040517f08c379a000000000000000000000000000000000000000000000000000000000815260206004820152602960248201527f455243313135353a2073657474696e6720617070726f76616c2073746174757360448201527f20666f722073656c660000000000000000000000000000000000000000000000606482015260840161062a565b73ffffffffffffffffffffffffffffffffffffffff83811660008181526006602090815260408083209487168084529482529182902080547fffffffffffffffffffffffffffffffffffffffffffffffffffffffffffffff001686151590811790915591519182527f17307eab39ab6107e8899845ad3d59bd9653f200f220920489ca2b5937696c319101610eab565b6000600260085414156119cc576040517f08c379a000000000000000000000000000000000000000000000000000000000815260206004820152601f60248201527f5265656e7472616e637947756172643a207265656e7472616e742063616c6c00604482015260640161062a565b60026008557f0000000000000000000000000000000000000000000000000000000000000000821015611a5b576040517f08c379a000000000000000000000000000000000000000000000000000000000815260206004820152600a60248201527f4d494e5f554e47494c4400000000000000000000000000000000000000000000604482015260640161062a565b611ab9337f0000000000000000000000000000000000000000000000000000000000000000611aaa7f000000000000000000000000000000000000000000000000000000000000000086613119565b611ab49190613156565b6123ed565b611ac43384846125da565b600083611ad9670de0b6b3a764000085613119565b611ae39190613156565b60408051338152602081018790529081018290529091507f0ded01eb8396007c6f988c0421d7d80aed357928ff9d39782f618ade9478c0ed9060600160405180910390a160016008559392505050565b80471015611b9d576040517f08c379a000000000000000000000000000000000000000000000000000000000815260206004820152601d60248201527f416464726573733a20696e73756666696369656e742062616c616e6365000000604482015260640161062a565b60008273ffffffffffffffffffffffffffffffffffffffff168260405160006040518083038185875af1925050503d8060008114611bf7576040519150601f19603f3d011682016040523d82523d6000602084013e611bfc565b606091505b5050905080610c3d576040517f08c379a000000000000000000000000000000000000000000000000000000000815260206004820152603a60248201527f416464726573733a20756e61626c6520746f2073656e642076616c75652c207260448201527f6563697069656e74206d61792068617665207265766572746564000000000000606482015260840161062a565b73ffffffffffffffffffffffffffffffffffffffff8416611d30576040517f08c379a000000000000000000000000000000000000000000000000000000000815260206004820152602560248201527f455243313135353a207472616e7366657220746f20746865207a65726f20616460448201527f6472657373000000000000000000000000000000000000000000000000000000606482015260840161062a565b336000611d3c856127e7565b90506000611d49856127e7565b9050600086815260056020908152604080832073ffffffffffffffffffffffffffffffffffffffff8c16845290915290205485811015611e0b576040517f08c379a000000000000000000000000000000000000000000000000000000000815260206004820152602a60248201527f455243313135353a20696e73756666696369656e742062616c616e636520666f60448201527f72207472616e7366657200000000000000000000000000000000000000000000606482015260840161062a565b600087815260056020908152604080832073ffffffffffffffffffffffffffffffffffffffff8d8116855292528083208985039055908a16825281208054889290611e57908490613052565b9091555050604080518881526020810188905273ffffffffffffffffffffffffffffffffffffffff808b16928c821692918816917fc3d58168c5ae7397731d063d5bbf3d657854427343f4c083240f7aacaa2d0f62910160405180910390a4611ec4848a8a8a8a8a612832565b505050505050505050565b73ffffffffffffffffffffffffffffffffffffffff84163b15611577576040517fbc197c8100000000000000000000000000000000000000000000000000000000815273ffffffffffffffffffffffffffffffffffffffff85169063bc197c8190611f469089908990889088908890600401613191565b6020604051808303816000875af1925050508015611f9f575060408051601f3d9081017fffffffffffffffffffffffffffffffffffffffffffffffffffffffffffffffe0168201909252611f9c918101906131fc565b60015b61208957611fab613219565b806308c379a01415611fff5750611fc0613235565b80611fcb5750612001565b806040517f08c379a000000000000000000000000000000000000000000000000000000000815260040161062a9190612af2565b505b6040517f08c379a000000000000000000000000000000000000000000000000000000000815260206004820152603460248201527f455243313135353a207472616e7366657220746f206e6f6e204552433131353560448201527f526563656976657220696d706c656d656e746572000000000000000000000000606482015260840161062a565b7fffffffff0000000000000000000000000000000000000000000000000000000081167fbc197c81000000000000000000000000000000000000000000000000000000001461215a576040517f08c379a000000000000000000000000000000000000000000000000000000000815260206004820152602860248201527f455243313135353a204552433131353552656365697665722072656a6563746560448201527f6420746f6b656e73000000000000000000000000000000000000000000000000606482015260840161062a565b50505050505050565b73ffffffffffffffffffffffffffffffffffffffff82166121e0576040517f08c379a000000000000000000000000000000000000000000000000000000000815260206004820152601f60248201527f45524332303a206d696e7420746f20746865207a65726f206164647265737300604482015260640161062a565b80600260008282546121f29190613052565b909155505073ffffffffffffffffffffffffffffffffffffffff82166000908152602081905260408120805483929061222c908490613052565b909155505060405181815273ffffffffffffffffffffffffffffffffffffffff8316906000907fddf252ad1be2c89b69c2b068fc378daa952ba7f163c4a11628f55a4df523b3ef9060200160405180910390a35050565b73ffffffffffffffffffffffffffffffffffffffff8416612326576040517f08c379a000000000000000000000000000000000000000000000000000000000815260206004820152602160248201527f455243313135353a206d696e7420746f20746865207a65726f2061646472657360448201527f7300000000000000000000000000000000000000000000000000000000000000606482015260840161062a565b336000612332856127e7565b9050600061233f856127e7565b9050600086815260056020908152604080832073ffffffffffffffffffffffffffffffffffffffff8b16845290915281208054879290612380908490613052565b9091555050604080518781526020810187905273ffffffffffffffffffffffffffffffffffffffff808a1692600092918716917fc3d58168c5ae7397731d063d5bbf3d657854427343f4c083240f7aacaa2d0f62910160405180910390a461215a83600089898989612832565b73ffffffffffffffffffffffffffffffffffffffff8216612490576040517f08c379a000000000000000000000000000000000000000000000000000000000815260206004820152602160248201527f45524332303a206275726e2066726f6d20746865207a65726f2061646472657360448201527f7300000000000000000000000000000000000000000000000000000000000000606482015260840161062a565b73ffffffffffffffffffffffffffffffffffffffff821660009081526020819052604090205481811015612546576040517f08c379a000000000000000000000000000000000000000000000000000000000815260206004820152602260248201527f45524332303a206275726e20616d6f756e7420657863656564732062616c616e60448201527f6365000000000000000000000000000000000000000000000000000000000000606482015260840161062a565b73ffffffffffffffffffffffffffffffffffffffff831660009081526020819052604081208383039055600280548492906125829084906132dd565b909155505060405182815260009073ffffffffffffffffffffffffffffffffffffffff8516907fddf252ad1be2c89b69c2b068fc378daa952ba7f163c4a11628f55a4df523b3ef9060200160405180910390a3505050565b73ffffffffffffffffffffffffffffffffffffffff831661267d576040517f08c379a000000000000000000000000000000000000000000000000000000000815260206004820152602360248201527f455243313135353a206275726e2066726f6d20746865207a65726f206164647260448201527f6573730000000000000000000000000000000000000000000000000000000000606482015260840161062a565b336000612689846127e7565b90506000612696846127e7565b60408051602080820183526000918290528882526005815282822073ffffffffffffffffffffffffffffffffffffffff8b1683529052205490915084811015612760576040517f08c379a0000000000000000000000000000000000000000000000000000000008152602060048201526024808201527f455243313135353a206275726e20616d6f756e7420657863656564732062616c60448201527f616e636500000000000000000000000000000000000000000000000000000000606482015260840161062a565b600086815260056020908152604080832073ffffffffffffffffffffffffffffffffffffffff8b81168086529184528285208a8703905582518b81529384018a90529092908816917fc3d58168c5ae7397731d063d5bbf3d657854427343f4c083240f7aacaa2d0f62910160405180910390a460408051602081019091526000905261215a565b604080516001808252818301909252606091600091906020808301908036833701905050905082816000815181106128215761282161306a565b602090810291909101015292915050565b73ffffffffffffffffffffffffffffffffffffffff84163b15611577576040517ff23a6e6100000000000000000000000000000000000000000000000000000000815273ffffffffffffffffffffffffffffffffffffffff85169063f23a6e61906128a990899089908890889088906004016132f4565b6020604051808303816000875af1925050508015612902575060408051601f3d9081017fffffffffffffffffffffffffffffffffffffffffffffffffffffffffffffffe01682019092526128ff918101906131fc565b60015b61290e57611fab613219565b7fffffffff0000000000000000000000000000000000000000000000000000000081167ff23a6e61000000000000000000000000000000000000000000000000000000001461215a576040517f08c379a000000000000000000000000000000000000000000000000000000000815260206004820152602860248201527f455243313135353a204552433131353552656365697665722072656a6563746560448201527f6420746f6b656e73000000000000000000000000000000000000000000000000606482015260840161062a565b803573ffffffffffffffffffffffffffffffffffffffff81168114612a0357600080fd5b919050565b60008060408385031215612a1b57600080fd5b612a24836129df565b946020939093013593505050565b7fffffffff0000000000000000000000000000000000000000000000000000000081168114612a6057600080fd5b50565b600060208284031215612a7557600080fd5b8135612a8081612a32565b9392505050565b6000815180845260005b81811015612aad57602081850181015186830182015201612a91565b81811115612abf576000602083870101525b50601f017fffffffffffffffffffffffffffffffffffffffffffffffffffffffffffffffe0169290920160200192915050565b602081526000612a806020830184612a87565b600060208284031215612b1757600080fd5b5035919050565b600080600060608486031215612b3357600080fd5b612b3c846129df565b9250612b4a602085016129df565b9150604084013590509250925092565b7f4e487b7100000000000000000000000000000000000000000000000000000000600052604160045260246000fd5b7fffffffffffffffffffffffffffffffffffffffffffffffffffffffffffffffe0601f830116810181811067ffffffffffffffff82111715612bcd57612bcd612b5a565b6040525050565b600067ffffffffffffffff821115612bee57612bee612b5a565b5060051b60200190565b600082601f830112612c0957600080fd5b81356020612c1682612bd4565b604051612c238282612b89565b83815260059390931b8501820192828101915086841115612c4357600080fd5b8286015b84811015612c5e5780358352918301918301612c47565b509695505050505050565b600082601f830112612c7a57600080fd5b813567ffffffffffffffff811115612c9457612c94612b5a565b604051612cc960207fffffffffffffffffffffffffffffffffffffffffffffffffffffffffffffffe0601f8501160182612b89565b818152846020838601011115612cde57600080fd5b816020850160208301376000918101602001919091529392505050565b600080600080600060a08688031215612d1357600080fd5b612d1c866129df565b9450612d2a602087016129df565b9350604086013567ffffffffffffffff80821115612d4757600080fd5b612d5389838a01612bf8565b94506060880135915080821115612d6957600080fd5b612d7589838a01612bf8565b93506080880135915080821115612d8b57600080fd5b50612d9888828901612c69565b9150509295509295909350565b60008060408385031215612db857600080fd5b823567ffffffffffffffff80821115612dd057600080fd5b818501915085601f830112612de457600080fd5b81356020612df182612bd4565b604051612dfe8282612b89565b83815260059390931b8501820192828101915089841115612e1e57600080fd5b948201945b83861015612e4357612e34866129df565b82529482019490820190612e23565b96505086013592505080821115612e5957600080fd5b50612e6685828601612bf8565b9150509250929050565b600081518084526020808501945080840160005b83811015612ea057815187529582019590820190600101612e84565b509495945050505050565b602081526000612a806020830184612e70565b600060208284031215612ed057600080fd5b612a80826129df565b60008060408385031215612eec57600080fd5b612ef5836129df565b915060208301358015158114612f0a57600080fd5b809150509250929050565b60008060408385031215612f2857600080fd5b50508035926020909101359150565b60008060408385031215612f4a57600080fd5b612f53836129df565b9150612f61602084016129df565b90509250929050565b600080600080600060a08688031215612f8257600080fd5b612f8b866129df565b9450612f99602087016129df565b93506040860135925060608601359150608086013567ffffffffffffffff811115612fc357600080fd5b612d9888828901612c69565b600181811c90821680612fe357607f821691505b6020821081141561301d577f4e487b7100000000000000000000000000000000000000000000000000000000600052602260045260246000fd5b50919050565b7f4e487b7100000000000000000000000000000000000000000000000000000000600052601160045260246000fd5b6000821982111561306557613065613023565b500190565b7f4e487b7100000000000000000000000000000000000000000000000000000000600052603260045260246000fd5b60007fffffffffffffffffffffffffffffffffffffffffffffffffffffffffffffffff8214156130cb576130cb613023565b5060010190565b6040815260006130e56040830185612e70565b82810360208401526130f78185612e70565b95945050505050565b60006020828403121561311257600080fd5b5051919050565b6000817fffffffffffffffffffffffffffffffffffffffffffffffffffffffffffffffff048311821515161561315157613151613023565b500290565b60008261318c577f4e487b7100000000000000000000000000000000000000000000000000000000600052601260045260246000fd5b500490565b600073ffffffffffffffffffffffffffffffffffffffff808816835280871660208401525060a060408301526131ca60a0830186612e70565b82810360608401526131dc8186612e70565b905082810360808401526131f08185612a87565b98975050505050505050565b60006020828403121561320e57600080fd5b8151612a8081612a32565b600060033d11156132325760046000803e5060005160e01c5b90565b600060443d10156132435790565b6040517ffffffffffffffffffffffffffffffffffffffffffffffffffffffffffffffffc803d016004833e81513d67ffffffffffffffff816024840111818411171561329157505050505090565b82850191508151818111156132a95750505050505090565b843d87010160208285010111156132c35750505050505090565b6132d260208286010187612b89565b509095945050505050565b6000828210156132ef576132ef613023565b500390565b600073ffffffffffffffffffffffffffffffffffffffff808816835280871660208401525084604083015283606083015260a0608083015261333960a0830184612a87565b97965050505050505056fea2646970667358221220d0e91df5da44eec6c4efd0459e5251d6772f7b5c5bd1bef6532cf3236bb8ce2564736f6c634300080a0033",
  "linkReferences": {},
  "deployedLinkReferences": {}
}