{
  "_format": "hh-sol-artifact-1",
  "contractName": "ChainlinkTwoFeedPriceOracle",
  "sourceName": "contracts/oracleprice/chainlink/ChainlinkTwoFeedPriceOracle.sol",
  "abi": [
    {
      "inputs": [
        {
          "components": [
            {
              "internalType": "address",
              "name": "base",
              "type": "address"
            },
            {
              "internalType": "address",
              "name": "quote",
              "type": "address"
            }
          ],
          "internalType": "struct ChainlinkTwoFeedPriceOracleConfig",
          "name": "config_",
          "type": "tuple"
        }
      ],
      "stateMutability": "nonpayable",
      "type": "constructor"
    },
    {
      "anonymous": false,
      "inputs": [
        {
          "indexed": false,
          "internalType": "address",
          "name": "sender",
          "type": "address"
        },
        {
          "components": [
            {
              "internalType": "address",
              "name": "base",
              "type": "address"
            },
            {
              "internalType": "address",
              "name": "quote",
              "type": "address"
            }
          ],
          "indexed": false,
          "internalType": "struct ChainlinkTwoFeedPriceOracleConfig",
          "name": "config",
          "type": "tuple"
        }
      ],
      "name": "Construction",
      "type": "event"
    },
    {
      "inputs": [],
      "name": "price",
      "outputs": [
        {
          "internalType": "uint256",
          "name": "",
          "type": "uint256"
        }
      ],
      "stateMutability": "view",
      "type": "function"
    }
  ],
  "bytecode": "0x60c060405234801561001057600080fd5b5060405161081f38038061081f83398101604081905261002f916100b4565b80516001600160a01b0390811660805260208083018051831660a05260408051338152855185169381019390935290519092168183015290517f3928767a7b1aefe738102e15a05eb56cc29c394f05627cd33764d8d42f389ff79181900360600190a15061011c565b80516001600160a01b03811681146100af57600080fd5b919050565b6000604082840312156100c657600080fd5b604080519081016001600160401b03811182821017156100f657634e487b7160e01b600052604160045260246000fd5b60405261010283610098565b815261011060208401610098565b60208201529392505050565b60805160a0516106d261014d6000396000818160e60152610256015260008181604f01526102f701526106d26000f3fe608060405234801561001057600080fd5b506004361061002b5760003560e01c8063a035b1fe14610030575b600080fd5b61003861004a565b60405190815260200160405180910390f35b6000807f000000000000000000000000000000000000000000000000000000000000000073ffffffffffffffffffffffffffffffffffffffff1663feaf968c6040518163ffffffff1660e01b815260040160a060405180830381865afa1580156100b8573d6000803e3d6000fd5b505050506040513d601f19601f820116820180604052508101906100dc919061041e565b50505091505060007f000000000000000000000000000000000000000000000000000000000000000073ffffffffffffffffffffffffffffffffffffffff1663feaf968c6040518163ffffffff1660e01b815260040160a060405180830381865afa15801561014f573d6000803e3d6000fd5b505050506040513d601f19601f82011682018060405250810190610173919061041e565b505050915050600082136101e8576040517f08c379a000000000000000000000000000000000000000000000000000000000815260206004820152600e60248201527f4d494e5f424153455f505249434500000000000000000000000000000000000060448201526064015b60405180910390fd5b60008113610252576040517f08c379a000000000000000000000000000000000000000000000000000000000815260206004820152600f60248201527f4d494e5f51554f54455f5052494345000000000000000000000000000000000060448201526064016101df565b60007f000000000000000000000000000000000000000000000000000000000000000073ffffffffffffffffffffffffffffffffffffffff1663313ce5676040518163ffffffff1660e01b8152600401602060405180830381865afa1580156102bf573d6000803e3d6000fd5b505050506040513d601f19601f820116820180604052508101906102e3919061046e565b6102f19060ff1660126104c7565b905060007f000000000000000000000000000000000000000000000000000000000000000073ffffffffffffffffffffffffffffffffffffffff1663313ce5676040518163ffffffff1660e01b8152600401602060405180830381865afa158015610360573d6000803e3d6000fd5b505050506040513d601f19601f82011682018060405250810190610384919061046e565b60ff169050808211156103c4578261039c82846104df565b6103a790600a610618565b6103b19086610624565b6103bb9190610661565b94505050505090565b818111156103f5576103d682826104df565b6103e190600a610618565b6103eb9084610624565b6103bb9085610661565b6103bb8385610661565b805169ffffffffffffffffffff8116811461041957600080fd5b919050565b600080600080600060a0868803121561043657600080fd5b61043f866103ff565b9450602086015193506040860151925060608601519150610462608087016103ff565b90509295509295909350565b60006020828403121561048057600080fd5b815160ff8116811461049157600080fd5b9392505050565b7f4e487b7100000000000000000000000000000000000000000000000000000000600052601160045260246000fd5b600082198211156104da576104da610498565b500190565b6000828210156104f1576104f1610498565b500390565b600181815b8085111561054f57817fffffffffffffffffffffffffffffffffffffffffffffffffffffffffffffffff0482111561053557610535610498565b8085161561054257918102915b93841c93908002906104fb565b509250929050565b60008261056657506001610612565b8161057357506000610612565b81600181146105895760028114610593576105af565b6001915050610612565b60ff8411156105a4576105a4610498565b50506001821b610612565b5060208310610133831016604e8410600b84101617156105d2575081810a610612565b6105dc83836104f6565b807fffffffffffffffffffffffffffffffffffffffffffffffffffffffffffffffff0482111561060e5761060e610498565b0290505b92915050565b60006104918383610557565b6000817fffffffffffffffffffffffffffffffffffffffffffffffffffffffffffffffff048311821515161561065c5761065c610498565b500290565b600082610697577f4e487b7100000000000000000000000000000000000000000000000000000000600052601260045260246000fd5b50049056fea2646970667358221220a99bad18af126e31dd0df3b62c3b0f32d2ec4a7621ebf6b4ae6a0ebaea2fd86864736f6c634300080a0033",
  "linkReferences": {},
  "deployedLinkReferences": {}
}